:100000000C94A7000C94CF000C94CF000C94CF005C
:100010000C94CF000C94CF000C94CF000C94CF0024
:100020000C94CF000C94CF000C9457040C94C9048A
:100030000C94CF000C94CF000C94CF000C94CF0004
:100040000C94CF000C94CF000C94CF000C94CF00F4
:100050000C94CF000C94CF000C94CF000C940010A3
:100060000C94CF000C9443070C941D070C94CF0004
:100070000C94CF000C94CF000C94CF000C94CF00C4
:100080000C94CF000C94CF000C94CF000C94CF00B4
:100090000C94CF000C94CF000C94CF000C94CF00A4
:1000A0000C94CF000C94CF000C94CF00080B0002EE
:1000B0000202010009040000010202000005240000
:1000C0001001052401010104240206052406000193
:1000D0000705810310004009040100020A00000026
:1000E00007050202400000070583024000000403E8
:1000F000090412010002EF02014041234180000186
:100100000102030141726475696E6F204C4C43001B
:1001100041726475696E6F2059756E00302E302EF5
:10012000302E30003132372E302E302E31007275A5
:100130006E2D6272696467650A000A000A0007068C
:1001400005040100080A0B0C0D09AE118E121124D2
:100150001FBECFEFDAE0DEBFCDBF24E0ACEEB1E0F2
:1001600001C01D92AE32B207E1F711E0A0E0B1E0AC
:10017000E4EFF2E302C005900D92AC3EB107D9F76F
:1001800010E0C6EAD0E004C02197FE010E944C179F
:10019000C53AD107C9F70E948F120C946D190C94BF
:1001A00000004091EE015091EF012091EC0130915F
:1001B000ED0142175307B4F49091E8009570E1F314
:1001C0009091E80092FD19C08093F1008091EE01BA
:1001D0009091EF0101968F739927892B19F48EEF77
:1001E0008093E8008091EE019091EF010196909349
:1001F000EF018093EE0181E0089580E00895CF92B1
:10020000DF92EF92FF920F931F93CF93DF931F9292
:10021000CDB7DEB7182F062FE42E862F880F8E5FFE
:1002200099830E94D10083E00E94D100F12EC12E5B
:100230009981D92E8C2D8F19801798F4F601E7FE3D
:1002400002C0849101C080810E94D100182F80E0FB
:100250000E94D1008123FFEFCF1ADF0A8111EACF7C
:1002600001C081E00F90DF91CF911F910F91FF901E
:10027000EF90DF90CF900895DF92EF92FF920F936F
:100280001F93CF93DF93D82E8A017B01E40EF51ED6
:10029000EB01CE15DF0571F0D7FE03C0FE0184919E
:1002A00001C088810E94D10021968111F2CF8FEF89
:1002B0009FEF01C0C801DF91CF911F910F91FF9077
:1002C000EF90DF900895615030F02091F100FC0133
:1002D00020830196F8CF289884E68093F101089551
:1002E000CF92DF92EF92FF920F931F93CF93DF9302
:1002F0006C017A018B01C0E0D0E0CE15DF0589F0FA
:10030000D8016D918D01D601ED91FC910190F081A4
:10031000E02DC6010995892B11F47E0102C02196BA
:10032000ECCFC701DF91CF911F910F91FF90EF901C
:10033000DF90CF900895FC01538D448D252F30E040
:10034000842F90E0821B930B541710F0CF960895E2
:1003500001970895FC01918D828D981761F0828D2F
:10036000DF01A80FB11D5D968C91928D9F5F9F73E9
:10037000928F90E008958FEF9FEF0895FC01918D8B
:10038000828D981731F0828DE80FF11D858D90E0F8
:1003900008958FEF9FEF0895FC01918D228D892F95
:1003A00090E0805C9F4F821B91098F73992708957D
:1003B00083E492E00E94CC0121E0892B09F420E043
:1003C000822F0895FC01848DDF01A80FB11DA35A6F
:1003D000BF4F2C91848D90E001968F739927848F65
:1003E000A689B7892C93A089B1898C9180648C935C
:1003F000938D848D981306C00288F389E02D808147
:100400008F7D80830895EF92FF920F931F93CF9378
:10041000DF93EC0181E0888F9B8D8C8D981305C054
:10042000E889F989808185FD24C0F62E0B8D10E0C6
:100430000F5F1F4F0F731127E02E8C8DE8120CC039
:100440000FB607FCFACFE889F989808185FFF5CFDF
:10045000CE010E94E201F1CF8B8DFE01E80FF11D6C
:10046000E35AFF4FF0820B8FEA89FB89808180621B
:1004700007C0EE89FF896083E889F98980818064FB
:10048000808381E090E0DF91CF911F910F91FF90E9
:10049000EF900895CF93DF93EC01888D8823C9F006
:1004A000EA89FB89808185FD05C0A889B9898C917D
:1004B00086FD0FC00FB607FCF5CF808185FFF2CF18
:1004C000A889B9898C9185FFEDCFCE010E94E20108
:1004D000E7CFDF91CF91089580E090E0892B29F05C
:1004E0000E94D80181110C9400000895CF93DF93EE
:1004F0001F92CDB7DEB76983DC01ED91FC910280DC
:10050000F381E02D41E050E0BE016F5F7F4F099520
:100510000F90DF91CF91089583E08093E90080915F
:10052000F200882319F08AE38093E80008950F937E
:100530001F93CF93DF931F92CDB7DEB782E08983FD
:1005400042E450E06CEA70E080E80E943C010E94C6
:100550008B0CDC0112960D911C911397011511055E
:1005600069F0D801ED91FC910280F381E02DBE018C
:100570006F5F7F4FC801099597FF07C089810F9072
:10058000DF91CF911F910F910895F801008511859A
:10059000E5CF4F925F926F927F92EF92FF920F930F
:1005A0001F93CF93DF93CDB7DEB7A1970FB6F89423
:1005B000DEBF0FBECDBF7C01FA01CB0119A22230F4
:1005C00008F42AE08E010F5D1F4F422E512C612C42
:1005D000712CBF01A30192010E942A17F901CA01DF
:1005E000015011096A3014F4605D01C0695CD801E2
:1005F0006C93232B242B252B61F70115110591F00A
:10060000F80101900020E9F73197AF01401B510B31
:10061000D701ED91FC910280F381E02DB801C70173
:10062000099502C080E090E0A1960FB6F894DEBF75
:100630000FBECDBFDF91CF911F910F91FF90EF9033
:100640007F906F905F904F9008958F929F92AF929E
:10065000BF92CF92DF92EF92FF920F931F93CF93AF
:10066000DF937C01EB016C0182E0C80ED11C4701D5
:10067000E5E08E0E911C00E010E0F60141916F0163
:1006800050E060E070E02AE0CE010E94C9025C0107
:10069000E881F9810190F081E02D6EE2CE010995AB
:1006A0008A0D9B1D080F191FC814D90431F7F701D3
:1006B000458150E060E070E02AE0CE010E94C9026E
:1006C000800F911FDF91CF911F910F91FF90EF90BD
:1006D000DF90CF90BF90AF909F908F9008958F92B2
:1006E0009F92AF92BF92CF92DF92EF92FF920F93C1
:1006F0001F93CF93DF935C016B017A0180910B0113
:10070000882309F45BC08091F201882309F456C064
:1007100080911E0480FF05C08091E000826080937C
:10072000E000E70110E00AEF83E0882E9AE3992EBB
:100730002097D9F10E947A0C81110AC0015009F466
:100740003DC061E070E080E090E00E94330FF0CFA8
:10075000282F30E0C217D3070CF48C2F4FB7F89432
:100760008092E9009091E80095FF1DC0282F30E0AD
:10077000C21BD30BF601982F915020F081918093EA
:10078000F100FACFC20ED31E112319F09092E800A7
:1007900009C08091E80085FD06C09092E80011E054
:1007A000209709F010E04FBFC3CF1111C3CF5D9860
:1007B00084E68093F0011E141F0444F081E090E071
:1007C000F5019383828380E090E001C0C701DF914F
:1007D000CF911F910F91FF90EF90DF90CF90BF903E
:1007E000AF909F908F9008950F931F93CF93DF93B7
:1007F000EC0188819981009729F02A813B81261795
:10080000370788F48B016F5F7F4F0E947F18009736
:1008100061F0998388831B830A832C813D81232B7C
:1008200011F4FC01108281E001C080E0DF91CF91E2
:100830001F910F910895CF93DF93EC0188819981E7
:10084000009711F00E94E717198218821D821C82FE
:100850001B821A82DF91CF910895EF92FF920F933E
:100860001F93CF93DF93EC01FB0186179707B9F035
:10087000008111810115110539F0E480F580B7017F
:100880000E94F403811104C0CE010E941B0407C022
:10089000FD82EC82B801888199810E945719CE01AE
:1008A000DF91CF911F910F91FF90EF9008951F92CC
:1008B0000F920FB60F9211248F939F938091E100B6
:1008C0009091E100937F9093E10083FF0FC010921D
:1008D000E90091E09093EB001092EC0092E390938A
:1008E000ED001092F20198E09093F00082FF20C09A
:1008F00093E09093E9009091F200992319F09AE324
:100900009093E8009091F001992339F09091F001D3
:1009100091509093F001992389F19091F1019923DD
:1009200039F09091F10191509093F101992341F1A7
:1009300084FF10C08091E2008E7E81608093E2008F
:100940008091E1008F7E8093E10080911E048E7E75
:10095000806111C080FF16C08091E2008E7E8061B0
:100960008093E2008091E1008E7E8093E10080918F
:100970001E048E7E816080931E0404C05D9ACDCFDC
:10098000289AD6CF9F918F910F900FBE0F901F90F6
:1009900018951F920F920FB60F921124CF92DF92EB
:1009A000EF92FF920F931F932F933F934F935F9379
:1009B0006F937F938F939F93AF93BF93EF93FF9327
:1009C000CF93DF93CDB7DEB76C97DEBFCDBF10926C
:1009D000E9008091E80083FFEDC168E0CE01459613
:1009E0000E94630182EF8093E8008D8987FF05C034
:1009F0009091E80090FFFCCF03C09EEF9093E80039
:100A0000982F907609F0C6C09E892F89188D911174
:100A10000CC0803829F480911F048093F10002C03B
:100A20001092F1001092F10048C1422F50E0512B7A
:100A3000913051F4811141C14130510509F03DC15E
:100A400080911F048D7F0BC0933061F4811135C1FB
:100A50004130510509F031C180911F0482608093BB
:100A60001F042BC1953041F48091E80080FFFCCF3A
:100A700020682093E30021C1963009F05FC0EB8C21
:100A8000FC8C1092E9001092EF011092EE011230EE
:100A900091F51092ED011092EC010E94970299E0FD
:100AA000BE016F5F7F4FDB01E92F1D92EA95E9F7E9
:100AB00099831A8391E09E8390EA98879AEF9987A9
:100AC0002091EE013091EF01275F3F4F3C832B8354
:100AD0008D831092E9001092EF011092EE01F092D6
:100AE000ED01E092EC0149E050E080E00E943C0121
:100AF0000E949702E2C0F092ED01E092EC010E94A8
:100B00008B0CDC011296ED90FC901397E114F1042C
:100B100009F4C0C0D701ED91FC910480F581E02D6E
:100B2000BE016B5E7F4FC7010995009719F00CF06D
:100B3000C4C0C7C0F701E084F184E8CF973009F45E
:100B4000C0C0983021F481E08093F100B6C09930A4
:100B500009F0B3C0837009F0B4C0E3E1F1E081E0D3
:100B600021E036E39081992361F08093E90020939E
:100B7000EB0091919093EC003093ED008F5F873004
:100B800089F78EE78093EA001092EA008F898093BC
:100B9000F20193C08B8D9C8D1092E9001092EF01B1
:100BA0001092EE019093ED018093EC01898D8111FB
:100BB00056C08E899D89913A59F4813209F081C0DD
:100BC00047E050E064E071E080E00E943C0175C0C5
:100BD000913209F076C0833289F4888D90E0982FA5
:100BE00088272F89822BA0E0B0E0809300019093AA
:100BF0000101A0930201B09303015FC0803269F448
:100C00008091E80082FFFCCF67E084E091E00E94E1
:100C100063018BEF8093E80006C0823209F04DC07B
:100C20008F8980930B0180911D04882319F0EEEFCA
:100C3000FAE002C0E0E0F8E0809104019091050143
:100C4000A0910601B0910701803B9440A105B10538
:100C500009F07BC080910B0180FF93C076C00E9499
:100C60008B0CDC0112960D911C9113970115110547
:100C700041F1D801ED91FC910190F081E02DBE0190
:100C80006B5E7F4FC8010995811117C0F80100857F
:100C90001185ECCF113009F44EC0133091F48F89D7
:100CA000882309F445C0823081F440E86BE080E19C
:100CB00091E00E94FF00882321F08EEF8093E800EE
:100CC00079C081E28093EB0075C0813029F440E85F
:100CD0006BE084E091E0EDCF833099F70E948B0CBC
:100CE000DC011296ED90FC9013978E010F5F1F4F61
:100CF0006801E114F10479F0D701ED91FC910680CF
:100D0000F781E02DB801C7010995080F111DF70102
:100D1000E084F184EECFD8011C92F601019000200E
:100D2000E9F73197BF016C197D0940E0C601C1CFD9
:100D30006EEE70E002C062EF70E06115710509F2BD
:100D4000FB01449150E080E840CF0FB6F894A8959D
:100D500080916000886180936000109260000FBEF7
:100D6000A895EE3F2AE0F20739F08091FE0A9091B3
:100D7000FF0A91838083A1CF1092FF0A1092FE0A8E
:100D80009CCFEE3F8AE0F80731F08081918190930B
:100D9000FF0A8093FE0A87E797E7918380839BE0B1
:100DA00088E10FB6F894A895809360000FBE9093E9
:100DB000600083CF6C960FB6F894DEBF0FBECDBF38
:100DC000DF91CF91FF91EF91BF91AF919F918F9163
:100DD0007F916F915F914F913F912F911F910F9153
:100DE000FF90EF90DF90CF900F900FBE0F901F906D
:100DF0001895EF92FF920F931F93CF93DF938C017F
:100E00007B01C0E0D0E0F701EC0FFD1F6491662389
:100E100061F0D801ED91FC910190F081E02DC801C5
:100E20000995892B11F02196EECFCE01DF91CF915C
:100E30001F910F91FF90EF9008951F920F920FB6A0
:100E40000F9211242F933F934F935F936F937F9350
:100E50008F939F93AF93BF93EF93FF9383E492E0BD
:100E60000E94E201FF91EF91BF91AF919F918F910D
:100E70007F916F915F914F913F912F910F900FBE96
:100E80000F901F9018951F920F920FB60F9211247A
:100E90002F938F939F93EF93FF93E0915302F091E1
:100EA00054028081E0915902F0915A0282FD12C0F1
:100EB000908180915C028F5F8F7320915D02821719
:100EC00051F0E0915C02F0E0ED5BFD4F958F809377
:100ED0005C0201C08081FF91EF919F918F912F91D2
:100EE0000F900FBE0F901F901895CF93DF93DC01EA
:100EF0004E5F5F4FFC019F012A1B3B0B9191992391
:100F000039F0EB01C40FD51F98834F5F5F4FF3CFCC
:100F1000CA01821B930B680F791FFB013297308344
:100F200031962083CA01DF91CF910895CF92DF924D
:100F3000EF92FF920F931F93CF93DF9300D000D0D7
:100F4000CDB7DEB79A01E0E0922F9F77220F232FD3
:100F5000221F330B31952115310509F0906801E00E
:100F60000E0FA1E0B0E0AC0FBD1FAE0FB11DFD0133
:100F700090832115310511F0E02FE6CF10E0DB0161
:100F8000A01BB10B14968C93FE0131966F0180E08B
:100F900090E08017910764F4F601F1906F019C01D5
:100FA000201B310B260F371FF901F5820196F1CF77
:100FB0008091E0029091E1024F5F5F4F040F151F97
:100FC000FC0120813181F90122813381A801BD0119
:100FD000F90109957C010E94F40F609364037093FA
:100FE0006503809366039093670381E0E016F10642
:100FF00009F080E00F900F900F900F90DF91CF914C
:101000001F910F91FF90EF90DF90CF900895CF92B6
:10101000DF92EF92FF92CF93DF93EC010E94F40FE7
:101020006B017C018091E0029091E102DC01ED9185
:10103000FC910084F185E02D0995892B79F40E94BB
:10104000F40FAB01BC014C195D096E097F094839E9
:101050005A436105710530F380E00DC08091E002D4
:101060009091E102DC01ED91FC910284F385E02D89
:101070000995888381E0DF91CF91FF90EF90DF9019
:10108000CF9008958091E0029091E102009759F18C
:10109000DC01ED91FC910688F789E02D099581111D
:1010A00024C080917B0390917C03892BE1F48DEF28
:1010B0009FEF90937C0380937B038091E00290915B
:1010C000E102DC01ED91FC910680F781E02D0995AC
:1010D0008091E0029091E102DC01ED91FC910488A5
:1010E000F589E02D099580E0089581E00895EF925B
:1010F000FF920F931F93CF93DF937C018B01EB0142
:1011000009900020E9F72197C61BD70B0E944208DF
:101110008823B1F1F70101900020E9F73197EE192A
:10112000FF09CE010796E80FF91FE138F10540F5F8
:1011300045E050E062EE72E0C7010E947507F801D9
:1011400020E030E02C173D0759F04191D901A80F5C
:10115000B91FA052BD4F12964C932F5F3F4FF2CF55
:1011600025503109A901480F591F62EE72E080E352
:10117000DF91CF911F910F91FF90EF900C94960704
:1011800080E0DF91CF911F910F91FF90EF90089534
:101190005F926F927F928F929F92AF92BF92CF9207
:1011A000DF92EF92FF920F931F93CF93DF931F92E3
:1011B000CDB7DEB74C0182EE92E00E9407088111A4
:1011C00026C022C00F5F1F4F8981F801E052FD4FFA
:1011D0008183282F2F7730E02C9DA0012D9D500D6D
:1011E0003C9D500D1124A40EB51E37E0CC0CDD1C27
:1011F000EE1CFF1C3A95D1F787FF15C0CE01019672
:101200000E9407088111DECF80E090E088C07090D6
:10121000E202198201E010E0A12CB12CC12CD12CEA
:101220007601C394EBCF872D807F55245394803370
:1012300009F0512C8FEF800FD4018C93552021F1B0
:10124000C8018E519D4F0E9407088823E9F2C8010A
:101250008D519D4F0E9407088823B1F20E5F1F4FEA
:10126000D401EC91F0E0E052FD4FE380F12CFE2C34
:10127000EE248481E80EF11C8091E20281FF08C017
:10128000B2E0EB0EF11C04C080E0E12CF12C01C0B7
:1012900082E0C82ED12CC01AD10A9EEF692E772485
:1012A0007A94C601800F911F8A159B0568F5CE01BF
:1012B00001960E940708882309F4A6CF809179033C
:1012C00090917A030097A9F0552099F0F4012081BC
:1012D000A301421B51099A01200F311FE216F306A8
:1012E00040F4DC01ED91FC910190F081E02D6981E9
:1012F00009950038110528F48981F801E052FD4F65
:1013000082830F5F1F4FCDCF8091790390917A0335
:10131000892B21F40138110508F076CFC8010F9010
:10132000DF91CF911F910F91FF90EF90DF90CF90C1
:10133000BF90AF909F908F907F906F905F90089537
:101340008F929F92AF92BF92EF92FF921F93CF9393
:10135000DF93CDB7DEB728970FB6F894DEBF0FBE88
:10136000CDBF0E944208182F8111D1C06091750332
:1013700070917603A091E002B091E1024091770371
:1013800050917803ED91FC9111976115710521F051
:101390000088F189E02D16C00684F785E02D86E7E8
:1013A00091E09A8389838090710390907203A0905A
:1013B0007303B09074038B829C82AD82BE82BE01A7
:1013C0006F5F7F4FCD0109958130910509F099C07C
:1013D000909363038093620387E0E9E1F1E0DE012B
:1013E000119601900D928A95E1F7FE013196A7EED4
:1013F000B2E07E0128E0E20EF11C81918D93EE15A2
:10140000FF05D9F782E08093EE021092EF028FE0A1
:101410008093F0024FE050E062EE72E088E891E0E5
:101420000E947507AC014550510962EE72E080E1FF
:101430000E9496070E94F40F609364037093650303
:1014400080936603909367036093680370936903C6
:1014500080936A0390936B038091E0029091E10284
:10146000DC01ED91FC910084F185E02D0995892B3B
:10147000E1F40E94F40F8090680390906903A090BB
:101480006A03B0906B03DC01CB0188199909AA09A2
:10149000BB0988399A43A105B105F0F28CEF9FEFA3
:1014A00090937C0380937B0320C0C7010E94C808EF
:1014B0000497D9F42091E502211112C00E94F40F83
:1014C000609368037093690380936A0390936B033E
:1014D00010926C0310927C0310927B0311E017C0F2
:1014E00030E030937C0320937B038091E002909165
:1014F000E102DC01ED91FC910488F589E02D09956C
:1015000006C08EEF9FEF90937C0380937B03812F27
:1015100028960FB6F894DEBF0FBECDBFDF91CF91F6
:101520001F91FF90EF90BF90AF909F908F90089584
:101530002F923F924F925F926F927F928F929F92E3
:10154000AF92BF92CF92DF92EF92FF920F931F93D1
:10155000CF93DF93CDB7DEB72B970FB6F894DEBFEE
:101560000FBECDBF9B878A875B011901FD82EC828C
:101570003A01600E711E872C7B82912C44244A9480
:10158000542C9B01240F351F3F832E839101200F84
:10159000311F39872887EA85FB858085981608F0F2
:1015A00036C1AA85BB8514965C924E921397159608
:1015B0008D919C911697DC01ED91FC910190F08149
:1015C000E02D6FEF09956FEF8A859B850E949D1036
:1015D000EA85FB8585819681DC01ED91FC91019086
:1015E000F081E02DAA85BB856C910995EA85FB8584
:1015F0006081CF010E949D10AA85BB8515968D91B3
:101600009C911697DC01ED91FC910190F081E02D09
:10161000682D09956B818A859B850E949D10EA85BE
:10162000FB8585819681DC01ED91FC910190F08133
:10163000E02D662D0995662D8A859B850E949D105B
:1016400075012E813F81E216F306B1F0EA85FB8534
:10165000858196818701DC01ED91FC910190F081FB
:10166000E02DD7016D917D010995F80160818A8592
:101670009B850E949D10E5CF7101AA85BB851596BB
:101680008D919C91169728853985E216F30691F085
:101690008701DC01ED91FC910190F081E02DD701F3
:1016A0006D917D010995F80160818A859B850E9475
:1016B0009D10E3CFDC01ED91FC91AA85BB851496CA
:1016C0006C910190F081E02D0995EA85FB8585817B
:1016D0009681DC01ED91FC910190F081E02DAA85CD
:1016E000BB8513966C91099568EC70E08A859B85A3
:1016F0000E9466108F3F910509F07DC0EA85FB8549
:10170000548243826FEFCF010E949D1065E070E02C
:101710008A859B850E946610AA85BB856C91262FC1
:1017200030E08217930709F066C0CD010E949D103A
:101730006AE070E08A859B850E9466107C0197FDB7
:101740005AC0682F8A859B850E949D106AE070E0D0
:101750008A859B850E9466108C0197FD4CC0682F7E
:101760008A859B850E949D10EA821982E981FA810F
:101770000E0F1F1FE12CF12C65E070E08A859B8520
:10178000E016F106A9F0EC14FD0491F00E94661039
:1017900097FD0AC0EC81FD81EE0DFF1D8083682F4F
:1017A0008A859B850E949D10FFEFEF1AFF0AE4CF08
:1017B0000E9466107C0197FD1EC065E070E08A857E
:1017C0009B850E94661097FD16C0FE2CEE248E0DA0
:1017D0009F1DAA85BB8513962D913C9114972817C0
:1017E000390749F48C918F5F8C93C801C016D106DC
:1017F00080F4C6010EC0939464E670E080E090E04F
:101800000E94330F8A859B850E944A10C4CE8FEFB9
:101810009FEF2B960FB6F894DEBF0FBECDBFDF91C2
:10182000CF911F910F91FF90EF90DF90CF90BF90DD
:10183000AF909F908F907F906F905F904F903F9070
:101840002F900895FC0182819381A481B5818093BA
:10185000710390937203A0937303B09374038BE5A9
:1018600097E0909378038093770310927603109219
:10187000750380EE92E00895CF93DF9300D0CDB74B
:10188000DEB72EE229831A8241E050E0BE016F5F8D
:101890007F4F0E942D110F900F90DF91CF910895EF
:1018A000FC018091F201811103C08FEF9FEF089539
:1018B0009FB7F89482E08093E9002091F20030E035
:1018C0001216130614F421E030E02115310559F009
:1018D000289884E68093F1018091F10080838091C3
:1018E000F200882319F09FBFC90108958BE6809309
:1018F000E800F9CF2FB7F89483E08093E900909146
:10190000E800892F807295FF04C09091F20080E476
:10191000891B2FBF08958091F40381110DC082E0CF
:101920008093F00384E08093F1031092F30310920C
:10193000F20381E08093F40380EF93E00895FC01CB
:101940008485958597FD0BC09FB7F89482E08093BE
:10195000E9008091F2009FBF90E0019608959FB743
:10196000F89482E08093E9008091F2009FBF90E0BC
:1019700008953FB7F8948091190490911A04A091AA
:101980001B04B0911C0426B5A89B05C02F3F19F07D
:101990000196A11DB11D3FBFBA2FA92F982F8827EF
:1019A000820F911DA11DB11DBC01CD0142E0660F4A
:1019B000771F881F991F4A95D1F708950895FB0155
:1019C0002785FC012787FB012685FC0126870895D2
:1019D000FC0187850895089580E090E008950E94B5
:1019E0007A0C90E008950F931F93CF93DF931F928B
:1019F000CDB7DEB78C01FC018485958597FF0EC0BD
:101A0000CE0101960E94500C019719F4298130E013
:101A100002C02FEF3FEFF80135872487F801848556
:101A200095850F90DF91CF911F910F910895CF93DE
:101A3000DF931F92CDB7DEB7FC018485958597FDB6
:101A400005C02FEF3FEF358724870BC0CE010196ED
:101A50000E94500C019719F4898190E002C08FEF29
:101A60009FEF0F90DF91CF910895AF92BF92CF92E9
:101A7000DF92EF92FF920F931F93CF93DF9300D0EB
:101A8000CDB7DEB7FC0187858823B1F05A019B01F1
:101A90008CE6898386858A83C12CD12CE12CF12C9C
:101AA0008A0142E050E0BE016F5F7F4F84859585DB
:101AB0000E94980AC50102C080E090E00F900F904C
:101AC000DF91CF911F910F91FF90EF90DF90CF901A
:101AD000BF90AF900895AF92BF92CF92DF92EF92F6
:101AE000FF920F931F93CF93DF93CDB7DEB72A9763
:101AF0000FB6F894DEBF0FBECDBF5C018EE48F83BE
:101B0000F50186819781988789871A8219821C82BC
:101B10001B821E821D8264E271E0CE0101960E944A
:101B20008611F5018185811106C06CE171E0CE015D
:101B300001960E9486110D811E8129813A81CC2453
:101B4000C394D12CCE010A967C0143E050E0BE0143
:101B5000695F7F4FF501848195810E94980A81E039
:101B60009A85913009F080E0F501808789819A811A
:101B70000E94E7172A960FB6F894DEBF0FBECDBFBE
:101B8000DF91CF911F910F91FF90EF90DF90CF9059
:101B9000BF90AF900895AF92BF92CF92DF92EF9235
:101BA000FF920F931F93CF93DF9300D01F92CDB777
:101BB000DEB7DC011F962C911F97222329F15C01CF
:101BC000ED91FC910084F185E02D0995892BF1F4CC
:101BD0008CE48983F50186858A83CC24C394D12C37
:101BE000CE0103967C0100E010E020E030E042E00E
:101BF00050E0BE016F5F7F4F848595850E94980AF3
:101C000081E09B81913019F080E001C081E00F906C
:101C10000F900F90DF91CF911F910F91FF90EF9058
:101C2000DF90CF90BF90AF900895AF92BF92CF92C8
:101C3000DF92EF92FF920F931F93CF93DF9300D029
:101C40001F92CDB7DEB7FC01208921111FC05C01B6
:101C5000118A8BE4898380E48B8386858A837F0164
:101C6000F2E1EF0EF11C80E4C82ED12C00E010E070
:101C700020E030E043E050E0BE016F5F7F4FF501B0
:101C8000848595850E94980AF501808B0F900F90AE
:101C90000F90DF91CF911F910F91FF90EF90DF9008
:101CA000CF90BF90AF900895CF93DF93EC010E9447
:101CB000150E8889882331F08989C80FD11D8A893A
:101CC00090E002C08FEF9FEFDF91CF910895CF9208
:101CD000DF92EF92FF920F931F93CF93DF93EC016C
:101CE0006A017B0100E010E08889811106C0CE0105
:101CF0000E94150E8889882399F00F5F1F4F8989EC
:101D000091E0980F998BFE01E80FF11D8289F70190
:101D100081937F0188898150888B0C151D0520F3E4
:101D2000C801DF91CF911F910F91FF90EF90DF904D
:101D3000CF900895CF93DF93EC010E94150E888910
:101D4000882359F08150888B898991E0980F998B6D
:101D5000C80FD11D8A8990E002C08FEF9FEFDF91FD
:101D6000CF910895CF93DF93EC010E94150E8889DF
:101D700090E0DF91CF910895CF92DF92EF92FF92A2
:101D80000F931F93CF93DF9300D000D000D0CDB737
:101D9000DEB77C018B016A011A8219821C821B82C8
:101DA0001E821D8260E070E0CE0101960E94F40365
:101DB000811105C0CE0101960E941B0408C01E823D
:101DC0001D826FEB71E089819A810E94571962E14F
:101DD00070E0CE0101960E94F403D80112966C9136
:101DE000CE0101960E945B11CE0101960E943C0C2F
:101DF000F8016381CE0101960E945B11CE0101962C
:101E00000E943C0CD80114966C91CE0101960E9460
:101E10005B11CE0101960E943C0CF8016581CE0158
:101E200001960E945B11D701ED91FC9169817A8145
:101E30000088F189E02DA601C70109958C018981EF
:101E40009A810E94E717C80126960FB6F894DEBF64
:101E50000FBECDBFDF91CF911F910F91FF90EF90FB
:101E6000DF90CF9008958F929F92AF92BF92CF92C2
:101E7000DF92EF92FF926B017C010E94B90C4B0143
:101E80005C01C114D104E104F104F1F00E94B90C29
:101E9000DC01CB0188199909AA09BB09883E934046
:101EA000A105B10570F321E0C21AD108E108F108DB
:101EB00088EE880E83E0981EA11CB11CC114D104C9
:101EC000E104F10419F7DDCFFF90EF90DF90CF90A0
:101ED000BF90AF909F908F900895AF92BF92CF9296
:101EE000DF92EF92FF920F931F93CF93DF93CDB7C3
:101EF000DEB727970FB6F894DEBF0FBECDBF5C01EB
:101F00009B0183E489835A834B83FB01019000206A
:101F1000E9F731978F01061B170BCC24C394D12C02
:101F2000CE0107967C0143E050E0BE016F5F7F4F1A
:101F3000D5011C968D919C911D970E94980A892B22
:101F4000E9F18F81F501868793E69C838D83CC240C
:101F5000C394D12CCE0106967C0100E010E020E075
:101F600030E042E050E0BE016C5F7F4FD5011C962F
:101F70008D919C911D970E94980A8E81882339F03B
:101F800061E070E080E090E00E94330FE0CF81E0FC
:101F9000F50187870190F081E02D0688F789E02D13
:101FA000C501099581110DC0D501ED91FC91048801
:101FB000F589E02DC5010995F501168680E090E0D0
:101FC00002C081E090E027960FB6F894DEBF0FBE06
:101FD000CDBFDF91CF911F910F91FF90EF90DF90D8
:101FE000CF90BF90AF9008952FB7F89460911504EB
:101FF0007091160480911704909118042FBF0895D2
:102000001F920F920FB60F9211242F933F938F932D
:102010009F93AF93BF938091150490911604A09164
:102020001704B09118043091140423E0230F2D37C6
:1020300020F40196A11DB11D05C026E8230F0296CC
:10204000A11DB11D209314048093150490931604D0
:10205000A0931704B09318048091190490911A0466
:10206000A0911B04B0911C040196A11DB11D809389
:10207000190490931A04A0931B04B0931C04BF91FD
:10208000AF919F918F913F912F910F900FBE0F9025
:102090001F901895CF93DF93EC018D819E81DC0119
:1020A000ED91FC910084F185E02D09951816190633
:1020B00054F48D819E81DC01ED91FC910284F385C5
:1020C000E02D0995EACFDF91CF9108958F929F92ED
:1020D000AF92BF92CF92DF92EF92FF92CF93DF93B6
:1020E000EC016B010E94F40F4B015C01E12CF12C1F
:1020F0008D819E81DC01ED91FC910284F385E02DC0
:10210000099597FF0FC00E94F40FDC01CB018819DD
:102110009909AA09BB098C159D05AE05BF0540F3B9
:102120008FEF9FEFDF91CF91FF90EF90DF90CF90F7
:10213000BF90AF909F908F900895FC0123813481D0
:102140002627022E2295207F2025032E322F22952E
:102150002F700226269532272327220F220F220FC7
:102160002025348323830895CF92DF92EF92FF924C
:102170000F931F93C12CD12CE12CF12C00E010E027
:1021800020E030E00E94980A1F910F91FF90EF909D
:10219000DF90CF900895CF93DF9300D0CDB7DEB717
:1021A00022E629836A8342E050E0BE016F5F7F4FE1
:1021B000FC01848195810E94B41081E090E00F9031
:1021C0000F90DF91CF910895CF93DF9300D01F92AE
:1021D000CDB7DEB7FC012785222389F08CE6898301
:1021E00086858A836B8343E050E0BE016F5F7F4F3B
:1021F000848595850E94B41081E090E002C080E063
:1022000090E00F900F900F90DF91CF9108950F9372
:102210001F93CF93DF9300D0CDB7DEB78C01FC01C5
:102220008785882369F08AE6898386858A8342E0E8
:1022300050E0BE016F5F7F4F848595850E94B4108A
:10224000F8011786108A118A0F900F90DF91CF91B5
:102250001F910F9108950E944919EF92FF920F93D9
:102260001F93CF93DF93FC012481358161157105A4
:1022700011F480E019C041155105A9F07B01EC0172
:102280008A01020F131FB8010E94F403882389F307
:10229000288139818C819D81B701820F931F0E9413
:1022A00057191D830C8381E0DF91CF911F910F910E
:1022B000FF90EF900895EF92FF920F931F93CF93AB
:1022C000DF9300D000D0CDB7DEB77C01862F4AE087
:1022D0008E010F5F1F4FB80190E00E94BE16F801FB
:1022E00001900020E9F73197AF01401B510BB80175
:1022F000C7010E942D110F900F900F900F90DF914A
:10230000CF911F910F91FF90EF900895EF92FF9260
:102310000F931F93CF93DF93EC018B016115710530
:1023200051F0CB010E94B5167C01BC01CE010E9488
:10233000F403811104C0CE010E941B0407C0FD827A
:10234000EC82B801888199810E94AE16CE01DF919E
:10235000CF911F910F91FF90EF900895CF93DF934E
:10236000ECEFF3E086E791E09183808312821382A1
:1023700014821582E3E4F2E01382128248EE53E005
:1023800060E070E0448355836683778324E231E024
:10239000318320832DEC30E0358724872CEC30E02E
:1023A0003787268728EC30E0318B208B29EC30E012
:1023B000338B228B2AEC30E0358B248B2EEC30E0F3
:1023C000378B268B118E128E138E148EA3EFB1E0F5
:1023D00013961C921E92129714964D935D936D93D3
:1023E0007C93179726E331E011963C932E932FEFC1
:1023F0003FEF1D963C932E931C97A2E0B4E01196FC
:102400009C938E9312961C92129713961C9213977C
:1024100014961C92149715961C92A8E0B4E011969D
:102420009C938E9312961C92129713961C9213975C
:1024300014961C92149715961C92A5EDB3E01C926D
:102440001696FC93EE93159717961C92179718966D
:102450001C9218971A96FC93EE931997EEE0F4E00D
:10246000918380831282138214821582EAEEF3E054
:10247000918380831282138214821582E0EEF3E04E
:1024800013821282C8E6D1E0D183C083B583A483CE
:10249000C3EBD5E1D783C68310861186E3E8F3E06A
:1024A00013821282448355836683778348E451E024
:1024B00051834083B587A48716861786108AADE7B7
:1024C000B3E011969C938E9340EC12964C93129726
:1024D00048EA13964C93139744E114964C9314973F
:1024E00042E715964C939093700380936F0310927C
:1024F000710310927203109273031092740330935D
:102500007C0320937B03F093E102E093E0021092BE
:102510007A0310927903DF91CF9108950895CF93B4
:10252000DF93CDB7DEB763970FB6F894DEBF0FBE6B
:10253000CDBF789484B5826084BD84B5816084BD4C
:1025400085B5826085BD85B5816085BD80916E0051
:10255000816080936E001092810080918100826082
:1025600080938100809181008160809381008091BF
:1025700080008160809380008091910082608093D0
:1025800091008091910081608093910080919000F2
:102590008160809390008091C10084608093C1002D
:1025A0008091C10082608093C1008091C1008160F0
:1025B0008093C1008091C30081608093C3008091AB
:1025C000C00082608093C0008091C20081608093CF
:1025D000C20080917A00846080937A0080917A00B2
:1025E000826080937A0080917A00816080937A0083
:1025F00080917A00806880937A001092F2011092A4
:102600001F0410921E048091D70081608093D70030
:1026100080EA8093D80089B5806189BD89B58260E0
:1026200089BD09B400FEFDCF61E070E080E090E07C
:102630000E94330F8091D8008F7C80618093D800F6
:102640008091E000807F8093E0008091E1008E7EA9
:102650008093E1008DE08093E200559A209AEEEF9E
:10266000FFE7859194918B3F9C4D19F481E0809315
:102670001D048FEF9FEF909300028093FF01E09184
:10268000DE03F091DF03A089B18982E08C93A485F9
:10269000B5851C92A685B78587E08C93108EA4899A
:1026A000B58986E08C93A289B3898C9180618C93E3
:1026B000A289B3898C9188608C93A289B3898C910B
:1026C00080688C930288F389E02D80818F7D8083E0
:1026D0008091DC038111C9C081E08093DC0385ED2A
:1026E00093E00E944A1068EE73E080E090E00E9460
:1026F000330F8091DA039091DB03DC01ED91FC91C3
:102700000084F185E02D09951816190644F3E5E0DB
:10271000BE2EAA24A394F2E39F2EEEE7F1E0DE01A1
:1027200019968B2D01900D928A95E1F7A092DD0309
:1027300045E050E0BE01675F7F4F85ED93E00E946A
:10274000B4108091DA039091DB03DC01ED91FC91F0
:102750000190F081E02D63E009956AEF70E080E080
:1027600090E00E94330F6CE371E08091DA03909166
:10277000DB030E94F9066AEF70E080E090E00E94BF
:10278000330F6AE371E08091DA039091DB030E94DA
:10279000F90664EF71E080E090E00E94330F6EE292
:1027A00071E08091DA039091DB030E94F90664EFF7
:1027B00071E080E090E00E94330F85ED93E00E948D
:1027C0004A10E3E8F1E0DE0111968B2D01900D92A5
:1027D0008A95E1F79092DD0374E0C72ED12CFE01BB
:1027E0003F967F0100E010E020E030E045E050E05F
:1027F000BE016F5F7F4F85ED93E00E94980A8F3F87
:10280000FFEF9F0739F468EE73E080E090E00E94EC
:10281000330F83CF2F852111FFCF0497E9F4288947
:1028200030E02053310984E6829FA001839F500D40
:102830001124298930E0205331096AE0629FC001E8
:10284000639F900D1124840F951F2A8930E0205337
:102850003109820F931F02C084E690E09093D70362
:102860008093D60382E38093DD0381E08093E903C4
:1028700080EE93E00E946B0D86E791E09A83898356
:1028800080917F0390918003A0918103B091820396
:102890008B839C83AD83BE838E010F5F1F4FC80166
:1028A0000E94220C0E94A0090E94420881113AC095
:1028B0000E94F40F8090260490902704A090280492
:1028C000B09029049B01AC01281939094A095B0918
:1028D00049015A0139E8831633E19306A104B10492
:1028E0000CF461C16093260470932704809328043C
:1028F000909329040E94A009882331F067E971E0D0
:102900008AE991E00E9477080E944208882309F42E
:102910004AC11092260410922704109228041092A3
:10292000290441C10E944208882309F43CC10E9445
:10293000F40F4B015C018091680390916903A091B1
:102940006A03B0916B03A5019401281B390B4A0B54
:102950005B0BDA01C90189399A43A105B105A8F4D5
:102960008091640390916503A0916603B091670321
:10297000A5019401281B390B4A0B5B0BDA01C90135
:1029800089399A43A105B105C8F120916C03809162
:10299000E0029091E102222371F04CEF5FEF50933F
:1029A0007C0340937B03DC01ED91FC910488F58965
:1029B000E02D0995F8C0B0ECB093E2021092E3026A
:1029C000DC01ED91FC910280F381E02D42E050E0CA
:1029D00062EE72E009958092640390926503A09282
:1029E0006603B09267038092680390926903A09295
:1029F0006A03B0926B03B1E0B0936C038091E00284
:102A00009091E102DC01ED91FC910084F185E02DD3
:102A10000995892B09F4C7C0C8010E94C8083C0168
:102A2000892B09F4C0C08092680390926903A09238
:102A30006A03B0926B03F090E2028F2D807F8033A7
:102A400009F096C040906D0350906E0341145104FC
:102A500009F4A9C0CDB6DEB6E981F0E0DF01A052ED
:102A6000BD4F13964C91139750E0542F4427149662
:102A70008C91480F511DCA0101962DB73EB7281BF6
:102A8000390B0FB6F8943EBF0FBE2DBF8DB79EB762
:102A90000196BC0120E030E02417350769F0D90128
:102AA000AE0FBF1FA052BD4F1596EC90DB01ED920B
:102AB000BD012F5F3F4FF0CFDC01A20FB31F1C926F
:102AC000BF2DB670BB8BB230F1F5B9016E0F7F1F11
:102AD000DB01A052BD4F1596EC901597F12CFE2C02
:102AE000EE2416964C91E40EF11C4BEF5FEF4E1B5B
:102AF0005F0B421B530B460D571D69517D4FF20171
:102B00000995F0E4F093E2022B892093E302F0921E
:102B1000E402E092E5028091E0029091E102DC01A2
:102B2000ED91FC910280F381E02D44E050E062EEF3
:102B300072E009958092640390926503A092660307
:102B4000B09267030FC04DEF5FEF4E1B5F0B421B50
:102B5000530B460D571D2E0F3F1FB9016B517D4F73
:102B6000F20109950FB6F894DEBE0FBECDBE1BC0B4
:102B7000803CA9F4F0EDF093E2021092E302809120
:102B8000E0029091E102DC01ED91FC910280F38181
:102B9000E02D42E050E062EE72E0099504C0803D15
:102BA00011F410926C030E94F40F80902204909014
:102BB0002304A0902404B09025049B01AC012819A3
:102BC00039094A095B0949015A0133E38316910423
:102BD000A104B1040CF4BBC06093220470932304DD
:102BE0008093240490932504EEE3F1E08491909186
:102BF0007B0083FB222420F8312C910145E0220F39
:102C0000331F4A95E1F79F7D292B20937B00877026
:102C1000806480937C0080917A00806480937A0045
:102C200080917A0086FDFCCFE09078008091790059
:102C3000F12CF82AF0922104E09220041E141F04C3
:102C40000CF085C0ADB6BEB61A8619861C861B86EA
:102C50001E861D866AE070E0CE0109960E94F4038C
:102C6000811105C0CE0109960E941B040AC08AE0AA
:102C700090E09E878D8765EB71E089859A850E943B
:102C800057194AE0B801C7010E94BE16F801019029
:102C90000020E9F73197AF01401B510BB801CE017D
:102CA00009960E942D111A8219821C821B821E8293
:102CB0001D82BE01675F7F4FC8010E942D0442E064
:102CC00050E060EC71E0C8010E942D11882309F4E6
:102CD00041C0B801CE0109960E942D0489819A81D4
:102CE0000E94E717ED84FE84C70101962DB73EB719
:102CF000281B390B0FB6F8943EBF0FBE2DBF4DB742
:102D00005EB74F5F5F4F4A01892B99F0411551051E
:102D100081F0E114F10419F4DA011C920AC069850A
:102D20007A85A701C4010E945E19F401EE0DFF1D12
:102D30001082B40183EC91E00E94770889859A851E
:102D40000E94E7170FB6F894BEBE0FBEADBE0E943C
:102D50006C02AACDC8010E941B04BBCFFB01DC01A1
:102D600005900D920020E1F70895FC0105900020E8
:102D7000E9F7809590958E0F9F1F0895BB274A30E5
:102D800031F4992322F4BDE2909581959F4F0C94E4
:102D9000CA16BB27FB015527AA27880F991FAA1F10
:102DA000A41710F0A41B83955051B9F7A05DAA3366
:102DB00008F0A95DA193009779F7B111B193119231
:102DC000CB010C94E316DC01FC01672F7191772392
:102DD000E1F7329704C07C916D9370836291AE17D6
:102DE000BF07C8F308952F923F924F925F926F9260
:102DF0007F928F929F92AF92BF92CF92DF92EF928B
:102E0000FF920F931F93CF93DF93CDB7DEB7CA1B0B
:102E1000DB0B0FB6F894DEBF0FBECDBF09942A8836
:102E2000398848885F846E847D848C849B84AA84DE
:102E3000B984C884DF80EE80FD800C811B81AA816B
:102E4000B981CE0FD11D0FB6F894DEBF0FBECDBF36
:102E5000ED010895A1E21A2EAA1BBB1BFD010DC0B6
:102E6000AA1FBB1FEE1FFF1FA217B307E407F5073A
:102E700020F0A21BB30BE40BF50B661F771F881F16
:102E8000991F1A9469F760957095809590959B01AC
:102E9000AC01BD01CF010895EE0FFF1F0590F49125
:102EA000E02D0994CF93DF938230910510F482E0F6
:102EB00090E0E0912C04F0912D0420E030E0C0E09F
:102EC000D0E0309711F14081518148175907C0F087
:102ED0004817590761F482819381209719F09B83E9
:102EE0008A832BC090932D0480932C0426C0211537
:102EF000310519F04217530718F49A01BE01DF019A
:102F0000EF010280F381E02DDCCF2115310509F1BD
:102F1000281B390B2430310590F412968D919C9129
:102F200013976115710521F0FB019383828304C01F
:102F300090932D0480932C04FD01329644C0FD0132
:102F4000E20FF31F81939193225031092D933C930B
:102F50003AC020912A0430912B04232B41F4209174
:102F60000E0130910F0130932B0420932A042091FD
:102F70000C0130910D012115310541F42DB73EB7FB
:102F80004091100150911101241B350BE0912A044E
:102F9000F0912B04E217F307A0F42E1B3F0B281728
:102FA000390778F0AC014E5F5F4F2417350748F0C2
:102FB0004E0F5F1F50932B0440932A0481939193EB
:102FC00002C0E0E0F0E0CF01DF91CF9108950F93D0
:102FD0001F93CF93DF93009709F48CC0FC013297C5
:102FE0001382128200912C0410912D0401151105F9
:102FF00081F420813181820F931F20912A04309126
:103000002B042817390779F5F0932B04E0932A0451
:1030100071C0D80140E050E0AE17BF0750F41296DF
:103020002D913C911397AD012115310509F1D9017D
:10303000F3CF9D01DA013383228360817181860F92
:10304000971F8217930769F4EC0128813981260FB5
:10305000371F2E5F3F4F318320838A819B8193836B
:103060008283452B29F4F0932D04E0932C0442C075
:103070001396FC93EE931297ED01499159919E019D
:10308000240F351FE217F30771F480819181840FBB
:10309000951F029611969C938E938281938113962D
:1030A0009C938E931297E0E0F0E0D80112968D91F8
:1030B0009C911397009719F0F8018C01F6CF8D9130
:1030C0009C9198012E5F3F4F820F931F20912A04FD
:1030D00030912B042817390769F4309729F410929E
:1030E0002D0410922C0402C01382128210932B0420
:1030F00000932A04DF91CF911F910F910895A0E0D2
:10310000B0E0E5E8F8E10C94F716EC01009721F443
:10311000CB010E945217B8C0FC01E60FF71F9C01BB
:1031200022503109E217F30708F4ACC0D9010D9120
:103130001C91119706171707B0F00530110508F418
:103140009FC0C80104978617970708F499C00250DA
:103150001109061B170B019311936D937C93CF01FB
:103160000E94E7178DC05B01A01AB10A4C01800EC6
:10317000911EA0912C04B0912D0440E050E0E12C70
:10318000F12C109709F44AC0A815B905D1F56D9036
:103190007C901197630182E0C80ED11CCA14DB0435
:1031A00080F1A3014A195B096A0182E0C80ED11CB3
:1031B0001296BC9012971396AC91B5E0CB16D10441
:1031C00040F0B282A38351834083D9016D937C93F5
:1031D0000AC00E5F1F4FC301800F911FF901918339
:1031E0008083EB2DFA2FE114F10431F0D70113960F
:1031F000FC93EE93129744C0F0932D04E0932C04BB
:103200003FC08D919C9111974817590708F4AC0164
:103210007D0112960D90BC91A02DB3CF80912A0410
:1032200090912B0488159905E1F446175707C8F4C7
:1032300080910C0190910D01009741F48DB79EB7DC
:103240004091100150911101841B950BE817F9076B
:10325000C8F4F0932B04E0932A04F901718360838E
:103260000FC0CB010E9452177C01009759F0A801B2
:10327000BE010E944E19CE010E94E717C70104C08B
:10328000CE0102C080E090E0CDB7DEB7EEE00C9456
:10329000131781E090E0F8940C946D19FB01DC01A8
:1032A00002C001900D9241505040D8F70895FB01A3
:1032B000DC0101900D920020E1F70895FB01DC0193
:1032C0004150504048F001900D920020C9F701C0D4
:1032D0001D9241505040E0F7089510E0C6EAD0E05A
:1032E00004C0FE010E944C172196C73AD107C9F7C6
:0432F000F894FFCF80
:1032F400FFFFFFFF00E100000000000000002E04BB
:10330400800000C1808100000000044D5154540429
:1033140000000000030270019B014A02CC01AA01D3
:10332400BE010000000076026F03EF0C8C029F0CBC
:10333400170DF30C00000000E410350DEC0CDE0C4E
:10334400B20E9A0E540EBC0E6D0F670E0711CB0D04
:10335400E80CDF0C00000000CB107001EC0CEB0C4F
:103364006B0D000000002503000000002B115858CD
:103374005858585858313030736F756E64446574BA
:10338400656374696F6E004F4B0061726475696F99
:103394006E6F436C69656E745F7265636F6E6E65A4
:1033A40063746564007B2756616C7565273A270052
:1033B400277D004175726475696E6F2F486F6D6566
:1033C4004175746F6D6174696F6E2E417564696FB8
:0C33D4002F3130322F6576656E740000DA
:1070000055C000006EC000006CC000006AC00000E7
:1070100068C0000066C0000064C0000062C00000DC
:1070200060C000005EC00000FCC400005AC0000048
:1070300058C0000056C0000054C0000052C00000FC
:1070400050C000005DC000004CC000004AC00000FD
:1070500048C0000046C0000044C0000042C000001C
:1070600040C000003EC000003CC000003AC000002C
:1070700038C0000036C0000034C0000032C000003C
:1070800030C000002EC000002CC000002AC000004C
:1070900028C0000026C0000024C0000022C000005C
:1070A00020C000001EC000001CC0000011241FBE34
:1070B000CFEFDAE0DEBFCDBF11E0A0E0B1E0E6E463
:1070C000FFE702C005900D92A63AB107D9F711E08B
:1070D000A6EAB1E001C01D92AF3BB107E1F74FD383
:1070E00030C78ECFF89410926F001092810081E02B
:1070F00085BF15BE47985D9A289A0C9400000895A4
:107100001F920F920FB60F9211242F938F939F937C
:10711000EF93FF9310928500109284008091A60156
:107120009091A701009741F001979093A701809358
:10713000A601892B09F45D9A8091A8019091A9017B
:10714000009741F001979093A9018093A801892BA2
:1071500009F4289A8091AC019091AD010196909329
:10716000AD018093AC01E0E0F0E0859194918F5FF8
:107170009F4F49F08091AA019091AB0101969093A5
:10718000AB018093AA01FF91EF919F918F912F9175
:107190000F900FBE0F901F90189584E08093E90028
:1071A0000DC08091E8008B778093E80003C08EB318
:1071B000882351F08091E80082FFF9CF8091E800A8
:1071C00085FFEFCF8091F1000895982F83E08093A1
:1071D000E9008091E80085FD0DC08091E8008E7780
:1071E0008093E80003C08EB3882369F08091E800A3
:1071F00080FFF9CF9093F1005D9884E690E0909342
:10720000A7018093A60108954F925F926F927F929B
:107210008F929F92AF92BF92CF92DF92EF92FF92A6
:107220000F931F93CF93DF9384E08093E9008091C5
:10723000E80082FF57C2289884E690E09093A90165
:107240008093A801AADF182F853481F48CE49DE196
:107250009093AB018093AA0107B600FCFDCFF9998A
:10726000FECF81E180935700E89503C0843519F47F
:1072700094DF8DE00DC28C34E1F38035D1F3843797
:1072800021F484E4A2DF80E003C2813611F489E5B1
:10729000FFC18134B1F481DF182F7FDF90E0880FC8
:1072A000991FAA2797FDA095BA2F312F330F20E001
:1072B000442737FD4095542F822B932BA42BB52BBD
:1072C000B8C1803711F483E5E3C1833549F4C0E0E8
:1072D000D1E089917ADF21E0C730D207D1F7D9C157
:1072E000863521F481E371DF80E3D2C1833731F445
:1072F00087E86BDF85E969DF8EE1CAC18536B9F4BD
:10730000E0E0F0E093E085E090935700E89507B661
:1073100000FCFDCF80935700E89507B600FCFDCF39
:10732000E058FF4FA0E7E030FA0771F7A2CF8237AD
:1073300039F4E1E0F0E089E0809357008491A8C13E
:10734000863439F4E0E0F0E089E0809357008491DE
:107350009FC18E3439F4E3E0F0E089E08093570078
:10736000849196C1813539F4E2E0F0E089E08093C0
:10737000570084918DC1823631F489E526DF80E0A3
:1073800024DF80E885C1823419F0873609F0E5C032
:107390001092AB011092AA0100DF082FFEDEF82E3A
:1073A000FCDE682E8554823008F071C1902F80E099
:1073B000CF2DD0E0C82BD92B10926F00173609F0D3
:1073C0004BC081E180935700E895DD24CC24C39421
:1073D0003FC0E090AF01F090B0010091B101109179
:1073E000B201B6E46B16D9F4ED2DF0E0EE29FF29D9
:1073F000E4918E2FEADEDD2081F082E090E0A0E0D3
:10740000B0E0E80EF91E0A1F1B1FE092AF01F092D8
:10741000B0010093B1011093B201DC2418C0D8016F
:10742000C701B695A7959795879575D5CEDE82E06D
:1074300090E0A0E0B0E0E80EF91E0A1F1B1FE092EA
:10744000AF01F092B0010093B1011093B201219706
:10745000209709F0BECF7DC08090AF019090B00121
:10746000A090B101B090B20196E4691609F05DC038
:1074700083E0F40180935700E89507B600FCFDCF48
:1074800054C0F6E46F1661F5772031F1E090AF015A
:10749000F090B0010091B1011091B2017EDED82EC2
:1074A000CC24852D90E08C299D29F7010C01409278
:1074B0005700E895112482E090E0A0E0B0E0E80EEB
:1074C000F91E0A1F1B1FE092AF01F092B00100935A
:1074D000B1011093B20102C060DE582E742423C0A3
:1074E000E090AF01F090B0010091B1011091B201B4
:1074F00016950795F794E79450DE682FC70113D5CA
:107500008091AF019091B001A091B101B091B20111
:107510000296A11DB11D8093AF019093B001A0937D
:10752000B101B093B201219704C0552477244424BB
:107530004394209709F0A5CF96E4691641F485E0BD
:10754000F40180935700E89507B600FCFDCF8DE06D
:107550003CDE82E080936F009CC0833471F4009124
:10756000AF011091B00119DE90E021E0F8010C01AB
:1075700020935700E89511247CCE833619F5E090CE
:10758000AF01F090B0010091B1011091B20105DEA0
:10759000F701E16090E021E00C0120935700E895AD
:1075A000112482E090E0A0E0B0E0E80EF91E0A1F8E
:1075B0001B1FE092AF01F092B0010093B101109354
:1075C000B20157CE8D3661F4E091AF01F091B00178
:1075D00085E080935700E89507B600FCFDCF49CEC3
:1075E000823551F4E091AF01F091B0010591149111
:1075F000812FEBDD802F4CC0843421F5E090AF016A
:10760000F090B0010091B1011091B201169507956B
:10761000F794E794C2DD682FC70185D48091AF014C
:107620009091B001A091B101B091B2010296A11D5B
:10763000B11D8093AF019093B001A093B101B093BD
:10764000B20117CE843609F5E090AF01F090B00199
:107650000091B1011091B201D801C701B695A7956B
:107660009795879558D4B1DD82E090E0A0E0B0E036
:10767000E80EF91E0A1F1B1FE092AF01F092B00145
:107680000093B1011093B20104C08B3111F08FE36C
:107690009CDD83E08093E9009091E8008091E80010
:1076A0008E778093E80095FF04C010C08EB38823C6
:1076B000C9F08091E80080FFF9CF8091E8008E77D3
:1076C0008093E80003C08EB3882361F08091E800C6
:1076D00080FFF9CF84E08093E9008091E8008B7708
:1076E0008093E800DF91CF911F910F91FF90EF9071
:1076F000DF90CF90BF90AF909F908F907F906F90D2
:107700005F904F9008959091B701892F8F778132C4
:1077100049F58091B8018032A1F0813219F5913A92
:1077200009F58091E800877F8093E8008CE091E084
:1077300067E070E027D28091E8008B778093E800C3
:107740000895913279F48091E800877F8093E80072
:107750008CE091E067E070E079D28091E8008E776C
:107760008093E800089582E061EC42E0D1D083E0AC
:1077700061E842E1CDD084E060E842E1C9C01F93F6
:10778000209100081092000844B714BE88E10FB69B
:10779000F89480936000109260000FBE80E8E0E0F3
:1077A000F0E00FB6F89480936100E09361000FBEA3
:1077B00031E035BF92E095BF3F9A209A559A809369
:1077C00061001092610047985D9A289A1092890092
:1077D0008AEF8093880090936F0083E0809381000C
:1077E000859194918F5F9F4F11F03093AE01942F4C
:1077F00041FF19C0809109012817A9F08093000862
:10780000789480911301882339F08091AC01909194
:10781000AD018F5E9240C8F310920008F89481E0A9
:10782000809313010CC090FF04C08091AE018823A7
:1078300051F493FF09C080910901281729F0809124
:10784000AE01882309F04EDCD4D078941092AB01BD
:107850001092AA011EEF20C0D7DC4BD38091AA0161
:107860009091AB0181549F4110F0109213018091CF
:10787000B3019091B40101969093B4018093B30148
:10788000292F97FF03C0512F591B252F220F28178F
:1078900010F4479801C0479A809113018823E1F6BC
:1078A0008091E00081608093E0001CDC80E090E04B
:1078B0001F910895FA01923049F0933061F09130B0
:1078C000F9F484E191E022E130E01EC086E291E02B
:1078D0002EE330E019C0882329F484E691E024E007
:1078E00030E012C0813029F488E691E022E230E0F5
:1078F0000BC0823029F48CE891E028E130E004C02C
:1079000080E090E020E030E091838083C901089519
:107910008093E9008091EB0081608093EB001092EE
:10792000ED006093EC004093ED008091EE00881F25
:107930008827881F08958091B70188238CF403C09D
:107940008EB38823B1F08091E80082FFF9CF809157
:10795000E8008B778093E80008958EB3882349F080
:107960008091E80080FFF9CF8091E8008E778093C6
:10797000E8000895EF92FF920F931F9345D04CD0EB
:1079800008ED10E0F80180818F7780838081806826
:10799000808380818F7D808319BC1EBA1092B501CF
:1079A00080EEE82EF12CF70180818B7F8083F80137
:1079B00080818160808380E060E042E0A9DFE1EEC9
:1079C000F0E080818E7F8083E2EEF0E08081816054
:1079D0008083808188608083F70180818E7F8083AF
:1079E000F8018081806180831F910F91FF90EF905B
:1079F0000895E7EDF0E08081816080838AE482BFB2
:107A000081E08093B601B6CFE8EDF0E080818E7F13
:107A100080831092E20008951092DA001092E10043
:107A200008951F920F920FB60F9211242F933F9338
:107A30004F935F936F937F938F939F93AF93BF9376
:107A4000EF93FF938091DA0080FF1BC08091D800F4
:107A500080FF17C08091DA008E7F8093DA008091DA
:107A6000D90080FF0BC080E189BD82E189BD09B4E6
:107A700000FEFDCF81E08EBB3BD203C019BC1EBA15
:107A800037D28091E10080FF17C08091E20080FF33
:107A900013C08091E2008E7F8093E2008091E2002B
:107AA00080618093E2008091D80080628093D8004A
:107AB00019BC85E08EBB1CD28091E10084FF2CC0F4
:107AC0008091E20084FF28C080E189BD82E189BD08
:107AD00009B400FEFDCF8091D8008F7D8093D8003F
:107AE0008091E1008F7E8093E1008091E2008F7EA3
:107AF0008093E2008091E20081608093E2008091B7
:107B0000B501882331F48091E30087FD02C081E054
:107B100001C084E08EBBECD18091E10083FF21C0E5
:107B20008091E20083FF1DC08091E100877F8093F8
:107B3000E10082E08EBB1092B5018091E1008E7F62
:107B40008093E1008091E2008E7F8093E20080913B
:107B5000E20080618093E20080E060E042E0D8DEF5
:107B6000C7D1FF91EF91BF91AF919F918F917F917D
:107B70006F915F914F913F912F910F900FBE0F909A
:107B80001F9018959C014091BD015091BE01461770
:107B9000570718F4F90190E044C06115710511F020
:107BA000AB01F8CF8091E8008E778093E80040E049
:107BB00050E0F0CF8EB3882309F444C0853009F437
:107BC00043C08091E80083FF02C081E00895809166
:107BD000E80082FD31C08091E80080FF22C08091E2
:107BE000F3009091F200782F60E0292F30E0262BEF
:107BF000372B07C081918093F100415050402F5F97
:107C00003F4F4115510519F02830310598F390E0A8
:107C10002830310509F491E08091E8008E77809357
:107C2000E8004115510531F6992321F605C08EB3C0
:107C3000882341F0853041F08091E80082FFF7CF42
:107C400080E0089582E0089583E008959C01611525
:107C5000710529F48091E8008B778093E800F901A1
:107C600026C08EB3882391F1853091F18091E80090
:107C700083FF02C081E008958091E80082FFF1CF88
:107C800006C08091F10081936150704059F02091BD
:107C9000F3008091F200322F20E090E0822B932BB2
:107CA000892B79F78091E8008B778093E800611544
:107CB0007105B9F605C08EB3882341F0853041F0D7
:107CC0008091E80080FFF7CF80E0089582E008957A
:107CD00083E008950F931F93DF93CF9300D0CDB728
:107CE000DEB7E7EBF1E08091F100819381E0EF3BBB
:107CF000F807C9F708DD8091E80083FFE4C08091B0
:107D0000B7019091B801953009F46DC0963040F4F8
:107D1000913081F1913070F0933009F0D4C02AC0D5
:107D2000983009F4A3C0993009F4B2C0963009F034
:107D3000CAC07CC0803809F4C6C0823809F0C3C00C
:107D40008091BB0187708093E9008091EB001092D5
:107D5000E9002091E800277F2093E80090E025E0EB
:107D6000969587952A95E1F781708093F10010929E
:107D7000F10087C0882319F0823009F0A4C08F7108
:107D8000823009F0A0C08091B901882331F520919B
:107D9000BB01277009F497C02093E9008091EB00A4
:107DA00080FF1BC0933021F48091EB00806213C0F0
:107DB0008091EB0080618093EB0081E090E002C055
:107DC000880F991F2A95E2F78093EA001092EA0043
:107DD0008091EB0088608093EB001092E900809125
:107DE000E800877F51C0882309F06DC01091B90168
:107DF0001F770FB7F8948091E800877F8093E800A1
:107E00009ADD8091E80080FFFCCF8091E3008078CC
:107E1000812B8093E30080688093E300112311F4A9
:107E200082E001C083E08EBB0FBF4DC0805882301E
:107E300008F049C08091B9019091BA016091BB01ED
:107E4000AE014F5F5F4F36DDBC01009709F43BC0C8
:107E50008091E800877F8093E80089819A8192DE93
:107E60008091E8008B778093E8002DC0803859F529
:107E70008091E800877F8093E8008091B50180932E
:107E8000F1008091E8008E778093E80054DD1BC0FC
:107E90008823C9F49091B9019230A8F48091E80048
:107EA000877F8093E8009093B50145DD8091B5010F
:107EB000882331F48091E30087FD02C081E001C096
:107EC00084E08EBB50DC8091E80083FF0AC0809183
:107ED000EB0080628093EB008091E800877F8093C5
:107EE000E8000F900F90CF91DF911F910F910895AF
:107EF00008951F938EB3882361F01091E9001092CA
:107F0000E9008091E80083FF01C0E4DE1770109360
:107F1000E9001F910895F999FECF92BD81BDF89AAD
:107F2000992780B50895262FF999FECF1FBA92BDE3
:107F300081BD20BD0FB6F894FA9AF99A0FBE01964A
:067F40000895F894FFCF44
:107F46004341544552494E41007700080000000065
:107F5600000008011201100102000008412341003F
:107F660001000201000109023E00020100803209FF
:107F7600040000010202010005240010010424028D
:107F8600040524060001070582030800FF09040111
:107F960000020A000000070504021000010705831D
:107FA6000210000104030904220341007200640068
:107FB600750069006E006F002000590075006E00A4
:107FC60020002000200020002000000018034100AF
:107FD60072006400750069006E006F0020004C009E
:067FE6004C004300000006
:040000030000700089
:00000001FF
